:100000000A128A11BD2E00308A000408840A820771
:1000100000344C34593443344134203453344F3455
:06002000463454340034A4
:100D7A0083010A128A119D2FF000831203131308AC
:100D8A00C62E8C1DC92ECA2EC62E8C117008930031
:100D9A0008008316031387150716A8308312031356
:100DAA009400803083160313910084309400093034
:100DBA009300080002300A128A113F270A128A1188
:100DCA0028300A128A113F270A128A110C300A1295
:100DDA008A113F270A128A11080083160313111475
:100DEA00831203138C110330F2008A30F10056305B
:100DFA00F000F00BFE2EF10BFE2EF20BFE2E052F4D
:100E0A0008008316031311150A2F83128C1D0E2F47
:100E1A000F2F0A2F8C110330F2008A30F10056305E
:100E2A00F000F00B162FF10B162FF20B162F1D2FB9
:100E3A000800F400312F740884000A128A11032072
:100E4A000A128A110A128A116E270A128A110130AD
:100E5A00F3007308F407312F740884000A128A1108
:100E6A0003200A128A110038031D3C2F3D2F202F20
:100E7A003E2F0800F2007208F0398312031388002B
:100E8A00081188152130F1007630F000F00B4B2F55
:100E9A00F10B4B2F64008312031388117208F000C0
:100EAA0003300310F00DFF3E031D562F0310700D83
:100EBA00F0398800081188152130F1007630F000E9
:100ECA00F00B652FF10B652F640083120313881151
:100EDA000800F2007208F03983120313880008151B
:100EEA0088152130F1007630F000F00B7A2FF10BE3
:100EFA007A2F64008312031388117208F0000330FA
:100F0A000310F00DFF3E031D852F0310700DF039FD
:100F1A008800081588152130F1007630F000F00BB2
:100F2A00942FF10B942F6400831203138811080085
:100F3A008316031388018312031388010A128A1184
:100F4A00DF260A128A110A128A11CE260A128A1179
:100F5A0080300A128A113F270A128A1101300A12B6
:100F6A008A111E270A128A11BA2F0A128A11F22628
:100F7A000A128A1124300A128A11C1260A128A1107
:100F8A0083160313111BCA2FCB2FDE2F53300A12DD
:100F9A008A11C1260A128A1183120313930121307E
:100FAA00F6007630F500F50BD82FF60BD82F640033
:100FBA00DE2F83160313111BE32FE42FBA2FE62F1C
:100FCA00E62F83128C1DEA2FEB2FE62F8C110A12C3
:100FDA008A1106270A128A112130F6007630F500A6
:100FEA00F50BF52FF60BF52F6400BA2FBA2FBA2F8F
:060FFA000A128A11002812
:02400E003A3F37
:00000001FF
