:100000000A128A11D92E00308A000408840A820755
:1000100000344C34593443344134203453344F3455
:06002000463454340034A4
:100DB200F60183010A128A11A92F83160313111453
:100DC200E22E83128C1DE62EE72EE22E8C110800F5
:100DD200831603131115ED2E83128C1DF12EF22EA4
:100DE200ED2E8C110800831203131308F000700813
:100DF200F1008C1DFD2EFE2E012F7108012F012FF7
:100E0200080002300A128A114B270A128A1128306E
:100E12000A128A114B270A128A110C300A128A11FD
:100E22004B270A128A110800831603138715071627
:100E32002630831203139400831603139101843026
:100E42009400243093000B178C1583120313930123
:100E52000800F4003D2F740884000A128A1103204E
:100E62000A128A110A128A117A270A128A11013089
:100E7200F3007308F4073D2F740884000A128A11E4
:100E820003200A128A110038031D482F492F2C2FE4
:100E92004A2F0800F2007208F03983120313880007
:100EA200081188152130F1007630F000F00B572F31
:100EB200F10B572F64008312031388117208F0009C
:100EC20003300310F00DFF3E031D622F0310700D5F
:100ED200F0398800081188152130F1007630F000D1
:100EE200F00B712FF10B712F640083120313881121
:100EF2000800F2007208F039831203138800081503
:100F020088152130F1007630F000F00B862FF10BBE
:100F1200862F64008312031388117208F0000330D5
:100F22000310F00DFF3E031D912F0310700DF039D9
:100F32008800081588152130F1007630F000F00B9A
:100F4200A02FF10BA02F6400831203138811080055
:100F52008316031388018312031388010A128A116C
:100F620002270A128A110A128A1115270A128A11F5
:100F720080300A128A114B270A128A1101300A1292
:100F82008A112A270A128A11C62F0A128A11DE260C
:100F92000A128A1183160313111BD02FD12FC62FC9
:100FA2000A128A11F4260A128A11F5007508F6004F
:100FB2007608533A031DDE2FDF2FC62FC0300A12E8
:100FC2008A114B270A128A1176080A128A117A2785
:100FD2000A128A11831203139301831603139116C3
:100FE2008312031314160A128A11E9260A128A11AD
:0E0FF200C62FC62FC62FC62F0A128A1100283E
:02400E003A3F37
:00000001FF
